:0400000051EF00F0CC
:10000800FACF12F0FBCF13F0E9CF14F029ED01F08D
:10001800D8CF01F0E8CF02F0E0CF03F0FACF04F038
:10002800FBCF05F0E9CF06F0EACF07F0E1CF08F003
:10003800E2CF09F0D9CF0AF0DACF0BF0F3CF0CF00A
:10004800F4CF0DF0F6CF0EF0F7CF0FF0F8CF10F099
:10005800F5CF11F011C0F5FF10C0F8FF0FC0F7FF82
:100068000EC0F6FF0DC0F4FF0CC0F3FF0BC0DAFFA3
:100078000AC0D9FF09C0E2FF08C0E1FF07C0EAFFD4
:1000880006C0E9FF05C0FBFF04C0FAFF03C0E0FF9C
:1000980002C0E8FF01C0D8FF10007DEF02F062C087
:1000A80027F063C028F000D027C020F028C021F036
:1000B80064C022F065C023F05DEC01F020C027F099
:1000C80021C028F00001604B612B27502810D8A4CC
:1000D800EBD760C0D9FF61C0DAFF000EDF6E000108
:1000E8006007D8A0610700D062C020F063C021F08B
:1000F80064C022F065C023F057EC02F02050296E4E
:1001080062C020F063C021F064C022F065C023F013
:100118005DEC01F020C062F021C063F0090E296493
:1001280002D0070E2926300E292660C0D9FF61C0EB
:10013800DAFF29C0DFFF00016007D8A061070001CE
:10014800625100016311D8A4CFD70001604B612B25
:1001580000D0120000D00D0EF7EC02F02A0AD8A445
:10016800FAD7870E216E000E226EE3EC02F00D0E18
:10017800F7EC02F000016E6F6F6B6EC066F06FC037
:1001880067F0000E0001696F700E686F000E0001C5
:100198006B6F100E6A6F31EC02F0700E216E000E5C
:1001A800226EE3EC02F041EC03F0020E0001846FD2
:1001B800080E0001846504D0080E0001846F00D089
:1001C8000001D8908433D890843384C022F00E0E76
:1001D800A1EC02F04CEC03F01200226E000EAC6EA3
:1001E800000EAB6E22A002D0AC8800D022A203D0B1
:1001F800AC8CAB8C00D022A402D0AC8E00D022A64E
:1002080002D0AB8802D0AB8A00D022B8AC849E98CA
:1002180022AA02D0AB8600D022AC02D09D8A01D09F
:100228009D9A9E9A22AE02D09D8801D09D9820C0AA
:10023800AFFF2150B06EAC8AAB8E949C948EACB854
:10024800ACBE02D0948C00D012000600EACF15F0A4
:10025800E1CF16F0E2CF17F0D9CF18F0DACF19F0C6
:10026800F3CF1AF0F4CF1BF0F6CF1CF0F7CF1DF048
:10027800F8CF1EF0F5CF1FF01FC0F5FF1EC0F8FF26
:100288001DC0F7FF1CC0F6FF1BC0F4FF1AC0F3FF28
:1002980019C0DAFF18C0D9FF17C0E2FF16C0E1FF86
:1002A80015C0EAFF14C0E9FF13C0FBFF12C0FAFF34
:1002B8001100000E266E000E256E22502310D8B4B1
:1002C80021D0010E246E05D0D89022362336242A58
:1002D80000D023BE02D0F8D700D0D89025362636D5
:1002E8002250205C23502158D8A006D02250205EEE
:1002F8002350215A258000D0D89023322232242E30
:10030800ECD700D025C020F026C021F01200216EC5
:1003180021C0C9FFC6BE26D001D024D0C6500F0BBD
:10032800080AD8B40DD0C6500F0B0B0AD8B408D0A1
:10033800C68800D09EA6FED7C7B414D0C75012D026
:10034800C6500F0B080AD8B407D0C6500F0B0B0ABB
:10035800D8B402D007D000D0C7B0FED762EC03F003
:10036800C55000D0120024D008EC03F020C0D9FFFB
:1003780021C0DAFFDF6E204A212A00D0C5B6FED799
:10038800A1B61AD001D018D0C6500F0B080AD8B49D
:1003980005D0C6500F0B0B0AD8A40AD02250D8B4E7
:1003A80007D0C59AC58800D0C5A802D0FDD700D00F
:1003B80022062228D8A4D8D71200C4EC02F08C90C8
:1003C800AEEC00F08C8000D08C70000E0001866FBF
:1003D800000E856F000186BF0AD000018651F4E146
:1003E800640E0001855DD8B0EFD701D0EDD71A0EA5
:1003F8002A6EF80EE82EFED72A2EFCD700D0000170
:10040800854B862BE7D7E0D751EF00F0C58000D0A9
:10041800C5A002D0FDD700D0C5B0FED71D0E8BEC0D
:1004280001F062EC03F023C020F024C021F025C0C5
:1004380022F0B7EC01F0C58AC58800D0C5A802D063
:10044800FDD700D0C5B8FED7C58400D0C5A402D05A
:10045800FDD700D0C5B4FED7120066C06CF067C0E7
:100468006DF0000169AF0FD066C0D9FF67C0DAFF31
:100478002D0EDF6E0001664B672B0001686D691F4A
:10048800D8B0692B00D066C060F067C061F068C062
:1004980062F069C063F06AC064F06BC065F053EC49
:1004A80000F000D0120022502310D8B41DD0010E45
:1004B800246E05D0D89022362336242A00D023BEB5
:1004C80002D0F8D700D02250205C23502158D8A061
:1004D80005D02250205E2350215A00D0D8902332D4
:1004E8002232242EF0D700D020C020F021C021F0E5
:1004F8001200406A500EF66E060EF76E000EF86E89
:1005080000EE87F010EE1CF00900F5CFEEFFE55085
:10051800E150FAE1AE0EF66E060EF76E000EF86EBA
:1005280000EE2BF010EE15F00900F5CFEEFFE550C8
:10053800E150FAE10001E1EF01F0236E62EC03F013
:10054800C58000D0C5A002D0FDD700D0C5B0FED769
:100558001C0E8BEC01F062EC03F023508BEC01F0E5
:1005680062EC03F022508BEC01F062EC03F0C584DE
:1005780000D0C5A402D0FDD700D0C5B4FED7120064
:10058800FE0E956E180E946E8C904F0EAB16AC9AAC
:10059800CF0E9D16000E216E330E206E080EF1EC64
:1005A80000F0000E6BEC03F06FEC03F0800E206E91
:1005B800080E19EC03F00A0EC86E8C80120000D0E9
:1005C800ACA2FED721C0D9FF22C0DAFFDF5036EC3B
:1005D80003F021C0D9FF22C0DAFF214A222ADF50C6
:1005E800D8A4EED71200276E000E286E280E236EB0
:1005F800000E246E000E266E010E256E27500AECA2
:1006080002F0285000D01200C6500F0B080AD8B4C8
:1006180005D0C6500F0B0B0AD8A402D0C58600D04F
:10062800C7A0FED7C95000D01200216E3F0EC716D2
:10063800000EC66E000EC56E2150C6122050C7129D
:1006480093829380C68A1200496E697469616C69E5
:100658007A656420416363656C65726F6D65746566
:10066800720A0D00206EACAC05D0AC9040A202D04E
:10067800AC8000D020C0ADFF12002A0EF7EC02F0CB
:10068800296E2950FE0B226E2A0EA1EC02F01200F0
:100698002A0EF7EC02F0296E29500109226E2A0E63
:1006A800A1EC02F0120048656C6C6F2C20776F7219
:1006B8006C6421203C504C3E0A0D000000D0C5CF90
:1006C80020F01F0E2016D8B4C7B4F9D71200206E38
:0A06D80020C0B8FF1200C69A1200FD
:020000040020DA
:08000000FFFFFFFFFFFFFFFF00
:020000040030CA
:0E00000000051F1FFF8385FF0FC00FE00F409C
:00000001FF
