:0400000051EF00F0CC
:10000800FACF12F0FBCF13F0E9CF14F08BED00F02C
:10001800D8CF01F0E8CF02F0E0CF03F0FACF04F038
:10002800FBCF05F0E9CF06F0EACF07F0E1CF08F003
:10003800E2CF09F0D9CF0AF0DACF0BF0F3CF0CF00A
:10004800F4CF0DF0F6CF0EF0F7CF0FF0F8CF10F099
:10005800F5CF11F011C0F5FF10C0F8FF0FC0F7FF82
:100068000EC0F6FF0DC0F4FF0CC0F3FF0BC0DAFFA3
:100078000AC0D9FF09C0E2FF08C0E1FF07C0EAFFD4
:1000880006C0E9FF05C0FBFF04C0FAFF03C0E0FF9C
:1000980002C0E8FF01C0D8FF1000E2EF00F0226EB6
:1000A800000EAC6E000EAB6E22A002D0AC8800D061
:1000B80022A203D0AC8CAB8C00D022A402D0AC8E90
:1000C80000D022A602D0AB8802D0AB8A00D022B8DA
:1000D800AC849E9822AA02D0AB8600D022AC02D073
:1000E8009D8A01D09D9A9E9A22AE02D09D8801D009
:1000F8009D9820C0AFFF2150B06EAC8AAB8E949C07
:10010800948EACB8ACBE02D0948C00D0120006001D
:10011800EACF15F0E1CF16F0E2CF17F0D9CF18F0FB
:10012800DACF19F0F3CF1AF0F4CF1BF0F6CF1CF0AA
:10013800F7CF1DF0F8CF1EF0F5CF1FF01FC0F5FF69
:100148001EC0F8FF1DC0F7FF1CC0F6FF1BC0F4FF60
:100158001AC0F3FF19C0DAFF18C0D9FF17C0E2FFB1
:1001680016C0E1FF15C0EAFF14C0E9FF13C0FBFF8A
:1001780012C0FAFF1100FE0E956E8C904F0EAB1652
:10018800AC9ACF0E9D16000E216E330E206E080E0F
:1001980053EC00F0000E46EC01F04AEC01F0800E42
:1001A800206E080E0AEC01F00A0EC86E3DEC01F054
:1001B800C58000D0C5B0FED78C801200386A640EA6
:1001C800F66E020EF76E000EF86E00EE23F010EEDB
:1001D80015F00900F5CFEEFFE550E150FAE1000116
:1001E80019EF01F000D0ACA2FED721C0D9FF22C080
:1001F800DAFFDF5027EC01F021C0D9FF22C0DAFF77
:10020800214A222ADF50D8A4EED71200216E3F0ED1
:10021800C716000EC66E000EC56E2150C6122050BD
:10022800C71293829380C68A1200BFEC00F000D0F8
:10023800ACA2FED7230E216E000E226EF6EC00F063
:10024800F7D751EF00F0206EACAC05D0AC9038A2D7
:1002580002D0AC8000D020C0ADFF120048656C6CA5
:100268006F2C20776F726C6421203C504C3E0A0D35
:10027800000000D0C5CF20F01F0E2016D8B4C7B498
:10028800F9D71200206E20C0B8FF1200C69A1200DB
:020000040020DA
:08000000FFFFFFFFFFFFFFFF00
:020000040030CA
:0E00000000051F1FFF8385FF0FC00FE00F409C
:00000001FF
