:0400000051EF00F0CC
:10000800FACF12F0FBCF13F0E9CF14F0CBEF14F0D6
:10001800D8CF01F0E8CF02F0E0CF03F0FACF04F038
:10002800FBCF05F0E9CF06F0EACF07F0E1CF08F003
:10003800E2CF09F0D9CF0AF0DACF0BF0F3CF0CF00A
:10004800F4CF0DF0F6CF0EF0F7CF0FF0F8CF10F099
:10005800F5CF11F011C0F5FF10C0F8FF0FC0F7FF82
:100068000EC0F6FF0DC0F4FF0CC0F3FF0BC0DAFFA3
:100078000AC0D9FF09C0E2FF08C0E1FF07C0EAFFD4
:1000880006C0E9FF05C0FBFF04C0FAFF03C0E0FF9C
:0E00980002C0E8FF01C0D8FF10005AEF16F0BA
:10060000000000803F1872313FF0FD753E4758638F
:100610003D58951D3C82C4AE3AA8782139EF9380AD
:1006200037A092A7354656153400000000C4FF7F5E
:100630003F80EFFFBE90E1A93EEC8276BE82AD2BFB
:100640003E0E3CC3BD87D1133D4178D3BB063C046D
:10065000427D9F6A425C900142604DBB4051EC4735
:100660003EDE8D1FBB063C0442C0598B42740444DD
:1006700042F99B4F410000803F00380E00018D6F12
:10068000010E00018E6F97EC0CF038C17EF039C17D
:100690007FF03AC180F03BC181F03CC182F03DC1A6
:1006A00083F03EC184F03FC185F0F3EC0EF07EC0D4
:1006B00018F17FC019F180C01AF181C01BF118C177
:1006C0008EF019C18FF01AC190F01BC191F058EC57
:1006D00009F08EC050F18FC051F190C052F191C01D
:1006E00053F1000E0001A56F000EA66F000EA76F5C
:1006F000400EA86F3CC1A1F03DC1A2F03EC1A3F0E5
:100700003FC1A4F097EC0BF0A1C01CF1A2C01DF1F9
:10071000A3C01EF1A4C01FF1000E0001A56F000EC2
:10072000A66F000EA76F400EA86F38C1A1F039C1A7
:10073000A2F03AC1A3F03BC1A4F097EC0BF0A1C02A
:1007400020F1A2C021F1A3C022F1A4C023F1000E28
:100750000001A56F000EA66F000EA76F400EA86FD8
:1007600040C1A1F041C1A2F042C1A3F043C1A4F035
:1007700097EC0BF0A1C024F1A2C025F1A3C026F193
:10078000A4C027F11CC168F01DC169F01EC16AF048
:100790001FC16BF020C164F021C165F022C166F079
:1007A00023C167F028EC08F064C028F165C029F186
:1007B00066C02AF167C02BF124C168F025C169F039
:1007C00026C16AF027C16BF028C164F029C165F029
:1007D0002AC166F02BC167F028EC08F064C02CF148
:1007E00065C02DF166C02EF167C02FF140C17EF0CB
:1007F00041C17FF042C180F043C181F02CC1B6F00D
:100800002DC1B7F02EC1B8F02FC1B9F083EC0AF0BA
:10081000B6C082F0B7C083F0B8C084F0B9C085F02C
:10082000F3EC0EF07EC030F17FC031F180C032F1C8
:1008300081C033F130C1D3F031C1D4F032C1D5F031
:1008400033C1D6F092EC14F0D3C054F1D4C055F1BA
:10085000D5C056F1D6C057F1000E0001826F000ED0
:10086000836F000E846F400E856FDBC073F0DCC0B9
:1008700074F0DDC075F0DEC076F0E0C068F0E1C075
:1008800069F0E2C06AF0E3C06BF038C164F039C1CE
:1008900065F03AC166F03BC167F028EC08F064C02F
:1008A0006FF065C070F066C071F067C072F041EC27
:1008B0000EF06FC07EF070C07FF071C080F072C02B
:1008C00081F0F3EC0EF07EC034F17FC035F180C0D2
:1008D00036F181C037F1ECC064F0EDC065F0EEC0D8
:1008E00066F0EFC067F034C168F035C169F036C119
:1008F0006AF037C16BF028EC08F064C0ECF065C01A
:10090000EDF066C0EEF067C0EFF0000E0001826F00
:10091000000E836F000E846F400E856FDBC073F096
:10092000DCC074F0DDC075F0DEC076F0E4C068F0C5
:10093000E5C069F0E6C06AF0E7C06BF03CC164F066
:100940003DC165F03EC166F03FC167F028EC08F09C
:1009500064C06FF065C070F066C071F067C072F07F
:1009600041EC0EF06FC07EF070C07FF071C080F07F
:1009700072C081F0F3EC0EF07EC034F17FC035F12F
:1009800080C036F181C037F1F0C064F0F1C065F08D
:10099000F2C066F0F3C067F034C168F035C169F0A9
:1009A00036C16AF037C16BF028EC08F064C0F0F093
:1009B00065C0F1F066C0F2F067C0F3F0000E000110
:1009C000826F000E836F000E846F400E856FDBC058
:1009D00073F0DCC074F0DDC075F0DEC076F0E8C006
:1009E00068F0E9C069F0EAC06AF0EBC06BF040C1A2
:1009F00064F041C165F042C166F043C167F028EC84
:100A000008F064C06FF065C070F066C071F067C038
:100A100072F041EC0EF06FC07EF070C07FF071C0DC
:100A200080F072C081F0F3EC0EF07EC034F17FC034
:100A300035F180C036F181C037F1F4C064F0F5C003
:100A400065F0F6C066F0F7C067F034C168F035C1F4
:100A500069F036C16AF037C16BF028EC08F064C069
:100A6000F4F065C0F5F066C0F6F067C0F7F038C185
:100A7000E0F039C1E1F03AC1E2F03BC1E3F03CC142
:100A8000E4F03DC1E5F03EC1E6F03FC1E7F040C112
:100A9000E8F041C1E9F042C1EAF043C1EBF01200D5
:100AA000000E0001606F000E616F800E626F3F0EDE
:100AB000636FCFC024F0D0C025F0D1C026F0D2C0E3
:100AC00027F03CEC16F024C064F025C065F026C089
:100AD00066F027C067F0B9EC12F00001D8B00FD073
:100AE000000E0001F96F210EF86F000E0001CF6FAC
:100AF000000ED06F000ED16F000ED26F1200000EEC
:100B00000101006F000E016F800E026F3F0E036F38
:100B1000CFC073F0D0C074F0D1C075F0D2C076F001
:100B2000CFC06FF0D0C070F0D1C071F0D2C072F001
:100B300041EC0EF06FC020F070C021F071C022F0C7
:100B400072C023F073EC16F020C064F021C065F091
:100B500022C066F023C067F0000E0001686F000E2F
:100B6000696F800E6A6F3F0E6B6F28EC08F064C0EF
:100B700004F165C005F166C006F167C007F104C164
:100B8000B6F005C1B7F006C1B8F007C1B9F083EC03
:100B90000AF0B6C010F1B7C011F1B8C012F1B9C077
:100BA00013F1CFC024F0D0C025F0D1C026F0D2C0C0
:100BB00027F03CEC16F024C060F025C061F026C0A0
:100BC00062F027C063F08F0E0001646FC20E656F84
:100BD000350E666F3F0E676FB9EC12F00001D8B0AA
:100BE0002DD0CFC07EF0D0C07FF0D1C080F0D2C079
:100BF00081F010C182F011C183F012C184F013C1E1
:100C000085F0F3EC0EF07EC014F17FC015F180C0CA
:100C100016F181C017F114C18EF015C18FF016C105
:100C200090F017C191F058EC09F08EC0CFF08FC052
:100C3000D0F090C0D1F091C0D2F012000001D2AF3C
:100C40006ED0CFC082F0D0C083F0D1C084F0D2C0CB
:100C500085F010C120F011C121F012C122F013C1A2
:100C600023F073EC16F020C07EF021C07FF022C08C
:100C700080F023C081F0F3EC0EF07EC014F17FC051
:100C800015F180C016F181C017F114C18EF015C1A5
:100C90008FF016C190F017C191F058EC09F08EC09A
:100CA0000CF18FC00DF190C00EF191C00FF1DB0E71
:100CB0000001686F0F0E696FC90E6A6F3F0E6B6F90
:100CC0000CC120F00DC121F00EC122F00FC123F0A4
:100CD00073EC16F020C064F021C065F022C066F00D
:100CE00023C067F028EC08F064C008F165C009F182
:100CF00066C00AF167C00BF108C120F009C121F0FC
:100D00000AC122F00BC123F073EC16F020C0CFF023
:100D100021C0D0F022C0D1F023C0D2F01200CFC049
:100D200082F0D0C083F0D1C084F0D2C085F010C171
:100D30007EF011C17FF012C180F013C181F0F3EC9D
:100D40000EF07EC014F17FC015F180C016F181C095
:100D500017F114C18EF015C18FF016C190F017C1B4
:100D600091F058EC09F08EC00CF18FC00DF190C0DD
:100D70000EF191C00FF10CC120F00DC121F00EC198
:100D800022F00FC123F073EC16F020C064F021C0F4
:100D900065F022C066F023C067F0DB0E0001686FCB
:100DA0000F0E696FC90E6A6F3F0E6B6F28EC08F06B
:100DB00064C0CFF065C0D0F066C0D1F067C0D2F09B
:100DC00012001200000196510001971100019811C4
:100DD00000019911D8A40AD0000E0001966F000EF0
:100DE000976F800E986F3F0E996F1200180E0001DA
:100DF000606F720E616F310E626F440E636F96C04A
:100E000064F097C065F098C066F099C067F0B9ECDF
:100E100012F00001D8B00FD0000E0001F96F220EC1
:100E2000F86FFF0E0001966FFF0E976F7F0E986FA1
:100E30007F0E996F120096C060F097C061F098C065
:100E400062F099C063F0870E0001646F480E656F11
:100E50003A0E666FC40E676FB9EC12F00001D8B09D
:100E60000FD0000E0001F96F220EF86F000E000186
:100E7000966F000E976F000E986F000E996F12001C
:100E8000000199AF02D0010E01D0000E0001A06F49
:100E90000001A0510001D8B412D096C020F097C034
:100EA00021F098C022F099C023F073EC16F020C016
:100EB00096F021C097F022C098F023C099F096C018
:100EC0006FF097C070F098C071F099C072F03B0E4F
:100ED0000001736FAA0E746FB80E756F3F0E766FB8
:100EE00041EC0EF06FC096F070C097F071C098F0B2
:100EF00072C099F096C06FF097C070F098C071F012
:100F000099C072F027EC10F06FC09AF070C09BF09F
:100F100071C09CF072C09DF09AC020F09BC021F07F
:100F20009CC022F09DC023F044EC12F020C09EF043
:100F300021C09FF096C06FF097C070F098C071F01C
:100F400099C072F09EC060F09FC061F0D9EC15F0BE
:100F500060C073F061C074F062C075F063C076F079
:100F600030EC15F06FC096F070C097F071C098F03B
:100F700072C099F096C07EF097C07FF098C080F064
:100F800099C081F0010E0001826F060E0001836F8F
:100F9000000E0001856F090E846FB6EC10F07EC064
:100FA0008EF07FC08FF080C090F081C091F09EC025
:100FB00092F09FC093F08EEC0FF08EC096F08FC031
:100FC00097F090C098F091C099F00001A0510001F5
:100FD000D8B435D00001962916E10001972913E114
:100FE0007F0E000198190FE17F0E00019919D8A416
:100FF0000AD0000E0001966F000E976F000E986FDA
:10100000000E996F1200000E00017E6F000E7F6FC0
:10101000800E806F3F0E816F96C082F097C083F084
:1010200098C084F099C085F0F3EC0EF07EC096F085
:101030007FC097F080C098F081C099F0120096C0F0
:1010400096F097C097F098C098F099C099F0120068
:1010500000016635673500016E6F00016A356B353A
:1010600000016D6F00016E510001D8B40FD0000176
:101070006D5100016E5DD8B012D000016E510008B4
:1010800000016D252B6E200E2B6409D068C064F022
:1010900069C065F06AC066F06BC067F012000001BD
:1010A0006D510001D8B40FD000016E5100016D5D8B
:1010B000D8B012D000016D51000800016E252B6ED2
:1010C000200E2B6409D064C064F065C065F066C072
:1010D00066F067C067F01200060E00016C6F000139
:1010E00067AF03D000016C8F00D000016BAF02D05E
:1010F00000016C8D0001668FFF0E00016417FF0E6A
:101100006517FF0E6617000E671700016A8FFF0E46
:1011100000016817FF0E6917FF0E6A17000E6B17A4
:1011200000016D5100016E5DD8B029D00001D8904A
:10113000683769376A376B3700016D0700016E51F8
:1011400000016D19D8B413D000016C076CC02BF0EE
:10115000070E2B16D8B40BD0E9D709D00001D890D0
:10116000673366336533643300016E2B00D00001B2
:101170006D5100016E19D8B431D0F0D72FD00001D5
:101180006E5100016D5DD8B029D00001D890643750
:1011900065376637673700016E0700016E51000141
:1011A0006D19D8B413D000016C076CC02BF0070E7A
:1011B0002B16D8B40BD0E9D709D00001D8906B33E7
:1011C0006A336933683300016D2B00D000016D5123
:1011D00000016E19D8B402D0F0D700D000016CAF76
:1011E00011D0FF0E0001641BFF0E651BFF0E661B76
:1011F000FF0E671B010E00016427000E65236623A6
:10120000672300D000016CAD11D0FF0E0001681BF8
:10121000FF0E691BFF0E6A1BFF0E6B1B010E000108
:101220006827000E69236A236B2300D0000E00019B
:101230006C6F0001645100016827000165510001D5
:1012400069230001665100016A2300016751000112
:101250006B2300016BAF14D0FF0E0001681BFF0E63
:10126000691BFF0E6A1BFF0E6B1B010E0001682736
:10127000000E69236A236B23010E00016C6F00D0FE
:1012800068C020F069C021F06AC022F06BC023F072
:101290006EC024F06CC025F03FEC11F020C064F06B
:1012A00021C065F022C066F023C067F01200120072
:1012B0008EC024F08FC025F090C026F091C027F09A
:1012C0003CEC16F024C09FF025C0A0F026C0A1F091
:1012D00027C0A2F000019F510001A0110001A1113F
:1012E0000001A211D8A40AD0000E00018E6F000EDA
:1012F0008F6F000E906F000E916F1200000E0001B4
:10130000606F000E616F800E626F3F0E636F9FC053
:1013100064F0A0C065F0A1C066F0A2C067F0B9ECAF
:1013200012F00001D8B002D0010E01D0000E000171
:101330009A6F00019A51D8B41BD0000E00017E6F45
:10134000000E7F6F800E806F3F0E816F9FC082F016
:10135000A0C083F0A1C084F0A2C085F0F3EC0EF031
:101360007EC09FF07FC0A0F080C0A1F081C0A2F03D
:101370009FC06FF0A0C070F0A1C071F0A2C072F069
:101380009FC073F0A0C074F0A1C075F0A2C076F049
:1013900041EC0EF06FC09BF070C09CF071C09DF0EE
:1013A00072C09EF09BC07EF09CC07FF09DC080F01C
:1013B0009EC081F0650E0001826F060E0001836FF2
:1013C000000E0001856F040E846FB6EC10F07EC035
:1013D00092F07FC093F080C094F081C095F09BC0E4
:1013E0007EF09CC07FF09DC080F09EC081F04D0ECD
:1013F0000001826F060E0001836F000E0001856FF1
:10140000050E846FB6EC10F07EC096F07FC097F0AA
:1014100080C098F081C099F09FC06FF0A0C070F0BC
:10142000A1C071F0A2C072F092C082F093C083F0AC
:1014300094C084F095C085F096C07EF097C07FF090
:1014400098C080F099C081F0F3EC0EF07EC073F08C
:101450007FC074F080C075F081C076F041EC0EF072
:101460006FC09FF070C0A0F071C0A1F072C0A2F078
:1014700000019A510001D8B426D09FC020F0A0C02E
:1014800021F0A1C022F0A2C023F073EC16F020C01E
:1014900064F021C065F022C066F023C067F0DB0E67
:1014A0000001686F0F0E696FC90E6A6F3F0E6B6F98
:1014B00028EC08F064C09FF065C0A0F066C0A1F001
:1014C00067C0A2F000D0000191BF09D09FC08EF08C
:1014D000A0C08FF0A1C090F0A2C091F012009FC0F8
:1014E00020F0A0C021F0A1C022F0A2C023F073EC34
:1014F00016F020C08EF021C08FF022C090F023C0E3
:1015000091F012001200000E0001606F000E616F7A
:10151000000E626F000E636FB6C064F0B7C065F076
:10152000B8C066F0B9C067F0B9EC12F00001D8A0FD
:1015300012D00001B9AF05D0000E0001F96F210EE5
:10154000F86F000E0001B66F000EB76F000EB86F97
:10155000000EB96F1200B6C0C2F0B7C0C3F0B8C079
:10156000C4F0B9C0C5F0B6C0BAF0B7C0BBF0B8C0DF
:10157000BCF0B9C0BDF00001BA1FBB1FBC1FBD1F2E
:10158000BA2B000EBB23BC23BD235E0E0001BA257F
:101590000001CB6FC80E0001BB210001CC6F6E0EA5
:1015A0000001BC210001CD6FBE0E0001BD21000174
:1015B000CE6F0001D890CE33CD33CC33CB33000E79
:1015C0000001C25F000EC35B800EC45B000EC55BF2
:1015D000040E0001C66F00D0CBC0BEF0CCC0BFF07F
:1015E000CDC0C0F0CEC0C1F0CBC06FF0CCC070F0A9
:1015F000CDC071F0CEC072F0C2C073F0C3C074F041
:10160000C4C075F0C5C076F041EC0EF06FC0C7F0F5
:1016100070C0C8F071C0C9F072C0CAF0C7C06FF026
:10162000C8C070F0C9C071F0CAC072F0CBC073F00E
:10163000CCC074F0CDC075F0CEC076F041EC0EF0A9
:101640006FC0C7F070C0C8F071C0C9F072C0CAF0F6
:10165000C7C06FF0C8C070F0C9C071F0CAC072F0E6
:10166000CBC073F0CCC074F0CDC075F0CEC076F0B6
:1016700041EC0EF06FC0C7F070C0C8F071C0C9F087
:1016800072C0CAF0CBC06FF0CCC070F0CDC071F0AA
:10169000CEC072F0000E0001736F000E746FC00EAA
:1016A000756F3F0E766F41EC0EF06FC0CBF070C0DF
:1016B000CCF071C0CDF072C0CEF0CBC06FF0CCC01A
:1016C00070F0CDC071F0CEC072F0C7C073F0C8C06A
:1016D00074F0C9C075F0CAC076F030EC15F06FC078
:1016E000CBF070C0CCF071C0CDF072C0CEF0000174
:1016F000C62F72D700D0CBC06FF0CCC070F0CDC079
:1017000071F0CEC072F0B6C073F0B7C074F0B8C05C
:1017100075F0B9C076F041EC0EF06FC0B6F070C055
:10172000B7F071C0B8F072C0B9F012001200000E2C
:101730000001B16F0001A1510001A2110001A3112C
:101740000001A411D8A425D0000E0001606F000E86
:10175000616F000E626F000E636FA5C064F0A6C0DB
:1017600065F0A7C066F0A8C067F0B9EC12F0000100
:10177000D8A005D0000E0001F96F210EF86F000E01
:101780000001A16F000EA26F000EA36F000EA46FE8
:1017900012000001A5510001A6110001A7110001CE
:1017A000A811D8A40AD0000E0001A16F000EA26FEC
:1017B000800EA36F3F0EA46F12000001A4AF58D09B
:1017C000A5C020F0A6C021F0A7C022F0A8C023F039
:1017D00044EC12F020C0B2F021C0B3F022C0B4F04B
:1017E00023C0B5F0B2C060F0B3C061F0B4C062F025
:1017F000B5C063F0A5EC16F00001A5510001601919
:1018000010E10001A651000161190BE10001A7518F
:101810000001621906E10001A85100016319D8B462
:101820000FD0000E0001F96F210EF86F000E0001BD
:10183000A16F000EA26F000EA36F000EA46F120026
:101840000001B251010B0001B16FA1C020F0A2C094
:1018500021F0A3C022F0A4C023F073EC16F020C046
:10186000A1F021C0A2F022C0A3F023C0A4F000D0B8
:10187000A1C08EF0A2C08FF0A3C090F0A4C091F0E0
:1018800084EC0DF08EC0A9F08FC0AAF090C0ABF030
:1018900091C0ACF0A9C06FF0AAC070F0ABC071F0FD
:1018A000ACC072F0A5C073F0A6C074F0A7C075F00C
:1018B000A8C076F041EC0EF06FC0ADF070C0AEF095
:1018C00071C0AFF072C0B0F0ADC096F0AEC097F08E
:1018D000AFC098F0B0C099F0E2EC06F096C0A1F06D
:1018E00097C0A2F098C0A3F099C0A4F00001B15134
:1018F0000001D8B413D0A1C020F0A2C021F0A3C031
:1019000022F0A4C023F073EC16F020C0A1F021C097
:10191000A2F022C0A3F023C0A4F01200A1C0A1F045
:10192000A2C0A2F0A3C0A3F0A4C0A4F012008DC076
:101930009DF08EC09EF09DC0D9FF9EC0DAFF000EC4
:10194000DE6E000EDE6E000EDE6E000EDD6E00013D
:1019500020EE04F09D51D9269E51DA22000EDE6E53
:10196000000EDE6E000EDE6E000EDD6E000120EE5B
:1019700008F09D51D9269E51DA22000EDE6E000E2F
:10198000DE6E000EDE6E000EDD6E950E286E000E11
:10199000296E000E2B6E060E2A6E010E8CEC16F0D0
:1019A000000E0001A06F000E9F6F0001A0BF0AD0C3
:1019B0000001A05106E1030E00019F5DD8B01200A6
:1019C00001D01200D89000019F35D96E0001A035DA
:1019D000DA6E950ED926000EDA22DF5000018F6FE5
:1019E00000018F510001916F906B9FC092F0A0C0D9
:1019F00093F0D890000192379337010E000192279F
:101A0000000E9323950E00019225D96E000E000161
:101A10009321DA6EDF500001946F000194510001B0
:101A2000901100019B6F0001915100019C6F00011A
:101A3000040E00018F6F00019C359C339B33000125
:101A40008F2FF9D7D89000019F35D96E0001A035AE
:101A5000DA6E950ED926000EDA227F0EDF6413D0DF
:101A600000019B6D9C1FD8B09C2B9BC020F09CC09C
:101A700021F0FF0E236E2268D2EC16F020C09BF0FE
:101A800021C09CF000D09BC060F09CC061F0D9ECFC
:101A900015F060C07EF061C07FF062C080F063C06E
:101AA00081F0000E0001826F000E836F800E846F44
:101AB000440E856FF3EC0EF0D89000019F35D96E7F
:101AC0000001A035DA6ED890D936DA3600019D5182
:101AD000D92600019E51DA2200017EC0DEFF0001FE
:101AE0007FC0DEFF000180C0DEFF000181C0DEFF9D
:101AF00000019F4BA02B0001A0BF64D70001A051A3
:101B000002E159D712001200000191AF0FD0000E70
:101B10000001F96F210EF86F000E00018E6F000EAC
:101B20008F6F000E906F000E916F120000018E51AA
:101B300000018F110001901100019111D8A40FD064
:101B4000000E0001F96F220EF86F000E00018E6F7B
:101B5000000E8F6F000E906F000E916F1200000E3E
:101B60000001736F000E746F000E756F400E766F7C
:101B7000920E246E000E256E8EC020F08FC021F0D4
:101B800090C022F091C023F080EC13F020C06FF0E1
:101B900021C070F022C071F023C072F041EC0EF051
:101BA0006FC064F070C065F071C066F072C067F01D
:101BB000000E0001686F000E696F800E6A6FBF0E25
:101BC0006B6F28EC08F064C08EF065C08FF066C0C3
:101BD00090F067C091F000019207D8A093078EC0E3
:101BE0007EF08FC07FF090C080F091C081F0290E10
:101BF0000001826F060E0001836F000E0001856FE9
:101C0000080E846FB6EC10F07EC08EF07FC08FF0AF
:101C100080C090F081C091F0180E0001736F720EB9
:101C2000746F310E756F3F0E766F92C060F093C087
:101C300061F0D9EC15F060C06FF061C070F062C067
:101C400071F063C072F041EC0EF06FC064F070C0D0
:101C500065F071C066F072C067F08EC068F08FC02A
:101C600069F090C06AF091C06BF028EC08F064C095
:101C70008EF065C08FF066C090F067C091F01200E2
:101C800012000001713572350001776F0001775144
:101C9000D8A40AD0000E00016F6F000E706F000E06
:101CA000716F000E726F12000001753576350001FC
:101CB0007D6F00017D51D8A40AD0000E00016F6F26
:101CC000000E706F000E716F000E726F1200000137
:101CD0007D517B0F0001772772C07DF000017651A6
:101CE00000017D1B800E00017D170001718F000136
:101CF000758FFF0E00017317FF0E7417FF0E751717
:101D0000000E7617000E0001786F000E796F000E3E
:101D10007A6F000E7B6F070E00017C6F00D0000110
:101D20006FA111D000017351000178270001745197
:101D3000000179230001755100017A2300017651D9
:101D400000017B2300D00001D890723371337033CF
:101D50006F330001D89073377437753776370001C9
:101D60007C2FDDD700D0110E00017C6F00D0000168
:101D70006FA111D000017351000178270001745147
:101D8000000179230001755100017A230001765189
:101D900000017B2300D00001D8907233713370337F
:101DA0006F330001D8907B337A3379337833000175
:101DB0007C2FDDD700D078C020F079C021F07AC028
:101DC00022F07BC023F077C024F07DC025F03FECEB
:101DD00011F020C06FF021C070F022C071F023C05C
:101DE00072F01200120000018035813500018B6F06
:101DF00000018B51D8A40AD0000E00017E6F000EA6
:101E00007F6F000E806F000E816F1200000184351D
:101E1000853500018C6F00018C51D8A40AD0000ECA
:101E200000017E6F000E7F6F000E806F000E816FCD
:101E3000120000018C51890F00018B5F81C08CF072
:101E40000001855100018C1B800E00018C170001E0
:101E5000808FFF0E00017E17FF0E7F17FF0E801789
:101E6000000E81170001848FFF0E00018217FF0E04
:101E70008317FF0E8417000E8517200E00018A6F4E
:101E800000D00001D890863787378837893700011E
:101E9000825100017E5D0001835100017F590001E4
:101EA0008451000180590001855100018159D8A059
:101EB00013D00001825100017E5F000183510001B7
:101EC0007F5B000184510001805B000185510001AE
:101ED000815B0001868100D00001D8907E377F377A
:101EE0008037813700018A2FCCD700D086C020F000
:101EF00087C021F088C022F089C023F08BC024F075
:101F00008CC025F03FEC11F020C07EF021C07FF0A6
:101F100022C080F023C081F01200120000018E5117
:101F200000018F110001901100019111D8A40AD075
:101F3000000E00018E6F000E8F6F000E906F000E6E
:101F4000916F1200000191517F0B0001946F956B0E
:101F5000D8900001943795370001945100019227E1
:101F60000001955100019323000190AF04D00001BE
:101F7000946B942B02D00001946B000194510001EA
:101F80009227000E9323000193AF10D0000E0001A2
:101F9000F96F220EF86F000E00018E6F000E8F6F2A
:101FA000000E906F000E916F120047D0000193BF9A
:101FB00022D000019305D8A01ED0000E0001F96FB9
:101FC000220EF86F000191AF0BD0FF0E00018E6F53
:101FD000FF0E8F6F7F0E906FFF0EE5D712002DD092
:101FE000FF0E00018E6FFF0E8F6F7F0E906F7F0EC2
:101FF000DAD7120022D00001933593310001956F9A
:10200000000192310001946F000191510001941977
:10201000800B94190001916F92C094F0010E0001A1
:1020200094170001943394330001905100019419E6
:102030007F0B94190001906F00D08EC08EF08FC07E
:102040008FF090C090F091C091F0120012006FC01C
:1020500020F070C021F071C022F072C023F0770E22
:10206000246E000E256E80EC13F0000178AF17D0BF
:10207000000172AF0AD0000E00016F6F000E706F8A
:10208000800E716FBF0E726F1200000E00016F6F35
:10209000000E706F000E716F000E726F1200000163
:1020A000785105E11D0E0001775DD8A009D06FC001
:1020B0006FF070C070F071C071F072C072F01200F9
:1020C0006FC020F070C021F071C022F072C023F008
:1020D00044EC12F020C060F021C061F022C062F038
:1020E00023C063F08CEC15F060C073F061C074F035
:1020F00062C075F063C076F06FC060F070C061F0D0
:1021000071C062F072C063F073C064F074C065F0B7
:1021100075C066F076C067F0B9EC12F00001D8B077
:102120001CD073C064F074C065F075C066F076C0F2
:1021300067F0000E0001686F000E696F800E6A6F15
:10214000BF0E6B6F28EC08F064C06FF065C070F0D4
:1021500066C071F067C072F0120073C06FF074C097
:1021600070F075C071F076C072F0120084C086F015
:1021700085C087F00001D890863787370001D89056
:102180008637873782C088F083C089F00001865186
:1021900000018827000187510001892388C0F6FFCC
:1021A00089C0F7FF0900F5CF8AF00900F5CF8BF061
:1021B0000900F5CF8CF00A00F5CF8DF051D08AC020
:1021C00073F08BC074F08CC075F08DC076F07EC05B
:1021D0006FF07FC070F080C071F081C072F041EC90
:1021E0000EF06FC064F070C065F071C066F072C030
:1021F00067F000018407D8A0850784C086F085C0F9
:1022000087F00001D890863787370001D89086374D
:10221000873782C088F083C089F0000186510001B1
:102220008827000187510001892388C0F6FF89C0F3
:10223000F7FF0900F5CF68F00900F5CF69F0090054
:10224000F5CF6AF00A00F5CF6BF028EC08F064C017
:102250008AF065C08BF066C08CF067C08DF000D04E
:102260000001845100018511D8A4A9D78AC07EF04D
:102270008BC07FF08CC080F08DC081F012002450A4
:10228000D8B406D02050211022102310D8A411D089
:10229000000E206E000E216E000E226E000E236EC8
:1022A000120007D0242AD890233222322132203241
:1022B00000D0000E2014266E000E2114276E000E92
:1022C0002214286EFE0E2314296E26502710281083
:1022D0002910D8B40ED0E6D70CD0242A010E20261F
:1022E000000E212222222322D890233222322132B0
:1022F0002032000E2014266E000E2114276E000ED0
:102300002214286EFF0E2314296E26502710281041
:102310002910D8B409D0E1D707D02406D8902036A8
:1023200021362236233600D022BE04D0020E24608D
:10233000F4D700D024B008D0FF0E2016FF0E2116CF
:102340007F0E2216FF0E2316D890243224C026F0CA
:10235000276A286A296A26C029F0286A276A266A15
:1023600026502012275021122850221229502312C1
:102370002550D8B402D0238E00D020C020F021C038
:1023800021F022C022F023C023F012001200276E99
:102390002CEC17F0C58000D0C5A002D0FDD700D02E
:1023A000C5B0FED7A1A603D0FF0E12006AD02750F9
:1023B000FEEC14F00009D8B406D0C58400D0C5B432
:1023C000FED7FD0E1200C5BC55D02350FEEC14F014
:1023D0000009D8B406D0C58400D0C5B4FED7FD0E20
:1023E0001200C5BC40D0C58200D0C5A202D0FDD726
:1023F00000D0C5B2FED72728FEEC14F00009D8B4EF
:1024000006D0C58400D0C5B4FED7FD0E1200C5BCF1
:1024100023D024C020F025C021F026C022F060EC9B
:1024200015F00009D8B402D0FF0E1200C58AC58885
:1024300000D0C5A802D0FDD700D0C5B8FED7C5844E
:1024400000D0C5A402D0FDD700D0C5B4FED7A1A648
:1024500018D0AAD7120015D0C58400D0C5B4FED7B5
:10246000FE0E12000ED0C58400D0C5B4FED7F8D73A
:10247000120007D0C58400D0C5B4FED7F1D7120032
:1024800000D0000E1200120022342334296E29508D
:10249000D8A409D0000E206E000E216E000E226E10
:1024A000000E236E120020C024F021C025F022C0AF
:1024B00026F023C027F0200E05D0D89027322632F0
:1024C00025322432E82EF9D72450286E228EFF0EB2
:1024D0002016FF0E2116FF0E2216000E2316960E52
:1024E000295E29AE17D02950800A970FD8B00AD09C
:1024F000000E206E000E216E000E226E000E236E66
:10250000120000D0D8902332223221322032293ECC
:10251000F9D719D01F0E296411D0000E206E000EBD
:10252000216E000E226E000E236E120007D0D8908E
:102530002036213622362336290600D02950D8B439
:1025400002D0F5D700D02850D8B409D0231E221EBF
:10255000211E206C000E21222222232200D020C026
:1025600020F021C021F022C022F023C023F012006D
:102570001200000163AF22D060C028F061C029F0D2
:1025800062C02AF063C02BF0281E291E2A1E2B1EB3
:10259000282A000E29222A222B22000E282400019C
:1025A000606F000E29200001616F000E2A200001DB
:1025B000626F800E2B200001636F00D0000167AFB7
:1025C00021D064C028F065C029F066C02AF067C039
:1025D0002BF0281E291E2A1E2B1E282A000E292217
:1025E0002A222B22000E28240001646F000E2920CD
:1025F0000001656F000E2A200001666F800E2B20FF
:102600000001676F000E0001601B000E611B000ED1
:10261000621B800E631B000E0001641B000E651B15
:10262000000E661B800E671B000164510001605D97
:1026300000016551000161590001665100016259B4
:102640000001675100016359D8B002D0D890120040
:10265000D88012001200246E2CEC17F0C58000D038
:10266000C5A002D0FDD700D0C5B0FED7A1A603D02B
:10267000FF0E120036D02450FEEC14F00009D8B43E
:1026800006D0C58400D0C5B4FED7FD0E1200C5BC6F
:1026900022D02250FEEC14F00009D8B406D0C58434
:1026A00000D0C5B4FED7FD0E1200C5BC0DD023501E
:1026B000FEEC14F00009D8B414D0C58400D0C5B421
:1026C000FED7FD0E12000DD0C58400D0C5B4FED7D4
:1026D000FE0E120006D0C58400D0C5B4FED7FE0E93
:1026E0001200C58400D0C5A402D0FDD700D0C5B467
:1026F000FED7A1A602D0FF0E1200000E120012009B
:102700002050211022102310D8A411D024C0D9FFAA
:1027100025C0DAFF000EDE6E000EDD6E000E206EAC
:10272000000E216E000E226E000E236E120023504A
:102730007F0B266E276AD8902636273624C0D9FF0D
:1027400025C0DAFF26C0DEFF27C0DDFF22AE03D0A2
:10275000266A262A01D0266A265024C0D9FF25C021
:10276000DAFFDE12000EDD1224C0D9FF25C0DAFF29
:10277000820EDE26FF0EDD22238023822384238621
:102780002388238A239C229E20C020F021C021F090
:1027900022C022F023C023F012001200000E00011C
:1027A000E06F000EE16F000EE26F000EE36F000EAF
:1027B0000001E46F000EE56F000EE66F000EE76F9C
:1027C000000E0001E86F000EE96F000EEA6F000EC8
:1027D000EB6F000E0001EC6F000EED6F000EEE6F60
:1027E000000EEF6F000E0001F06F000EF16F000E93
:1027F000F26F000EF36F000E0001F46F000EF56F24
:10280000000EF66F000EF76F000E0101546F000E00
:10281000556F000E566F000E576F000E0101506F7E
:10282000000E516F000E526F000E536F1200226E99
:102830002CEC17F0C58000D0C5A002D0FDD700D089
:10284000C5B0FED7A1B6120002D0120027D0225088
:10285000FEEC14F0FF0AD8A41FD0C58400D0C5A494
:102860001200FDD7120018D0C58200D0C5A202D038
:10287000FDD700D0C5B2FED7A1B6120001D012001C
:102880002250FEEC14F0FF0AD8A406D0C58400D074
:10289000C5A41200FDD71200C5BCE6D7C58400D080
:1028A000C5A402D0FDD700D0C5B4FED7A1501200F8
:1028B0001200226E000EAC6E000EAB6E22A002D093
:1028C000AC8800D022A203D0AC8CAB8C00D022A468
:1028D00002D0AC8E00D022A602D0AB8802D0AB8A48
:1028E00000D022B8AC849E9822AA02D0AB8600D039
:1028F00022AC02D09D8A01D09D9A9E9A22AE02D02F
:102900009D8801D09D9820C0AFFF2150B06EAC8A49
:10291000AB8E949C948EACA81200ACBE1200948C2A
:1029200012001200D3C0CFF0D4C0D0F0D5C0D1F087
:10293000D6C0D2F050EC05F0CFC0D7F0D0C0D8F060
:10294000D1C0D9F0D2C0DAF0D7C020F0D8C021F081
:10295000D9C022F0DAC023F073EC16F020C064F086
:1029600021C065F022C066F023C067F0DB0E0001D5
:10297000686F0F0E696FC90E6A6F3F0E6B6F28ECA0
:1029800008F064C0D3F065C0D4F066C0D5F067C06D
:10299000D6F012001200EACF15F0E1CF16F0E2CF28
:1029A00017F0D9CF18F0DACF19F0F3CF1AF0F4CF2F
:1029B0001BF0F6CF1CF0F7CF1DF0F8CF1EF0F5CFCF
:1029C0001FF01FC0F5FF1EC0F8FF1DC0F7FF1CC0A1
:1029D000F6FF1BC0F4FF1AC0F3FF19C0DAFF18C0DE
:1029E000D9FF17C0E2FF16C0E1FF15C0EAFF14C00F
:1029F000E9FF13C0FBFF12C0FAFF1100216E21C0D6
:102A0000C9FFC6AE02D0FF0E1200C6500F0B080A57
:102A1000D8B410D0C6500F0B0B0AD8B40BD0C68850
:102A200000D09EA6FED7C7A4C7B002D0FE0E1200EB
:102A3000000E1200C6500F0B080AD8B406D0C650BC
:102A40000F0B0B0AD8A4120000D0C7B0FED72CEC95
:102A500017F0C5AC02D0FE0E1200000E12001200DC
:102A6000000173510001741100017511000176110C
:102A7000D8B40AD0000E0001731B000E741B000EA8
:102A8000751B800E761B00D06FC064F070C065F0BF
:102A900071C066F072C067F073C068F074C069F00E
:102AA00075C06AF076C06BF028EC08F064C06FF077
:102AB00065C070F066C071F067C072F0120012005D
:102AC00024D0E6EC16F020C0D9FF21C0DAFFDF6E7B
:102AD000204A212A00D0C5B6FED7A1A602D0FF0EFB
:102AE0001200C6500F0B080AD8B405D0C6500F0B01
:102AF0000B0AD8A40AD02250D8B407D0C59AC588EA
:102B000000D0C5A802D0FDD700D022062228D8A424
:102B1000D8D7000E12001200000E2A6E000163AF1B
:102B20000CD00001631F621F611F606D000E6123E6
:102B300062236323010E2A6E00D060C020F061C0C2
:102B400021F062C022F063C023F0960E246E2AC0EA
:102B500025F03FEC11F020C060F021C061F022C0F0
:102B600062F023C063F0120012000D0EBDEC16F0EF
:102B70000001646F2A0E00016419D8A4F6D716EC80
:102B800017F0020E0001656F080E0001656504D0A4
:102B9000080E0001656F00D00001D8906533D89011
:102BA000653365C025F00E0EF7EC16F021EC17F03A
:102BB0001200000E2A6E000161AF07D00001606DA7
:102BC000611FD8B0612B2A2A00D060C020F061C0FC
:102BD00021F0226A236A960E246E2AC025F03FEC6B
:102BE00011F020C060F021C061F022C062F023C06B
:102BF00063F012001200030ED312D388D38AD38C51
:102C000094908B904F0EAB16AC9ACF0E9D16000E83
:102C1000216E330E206E080E59EC14F0000E35ECC8
:102C200017F039EC17F0800E206E080E07EC17F045
:102C3000270EC86E8B801200FBEC15F08B90B5EC64
:102C400015F0CEEC13F08B8000D08B70000E0001DD
:102C5000DB6F000EDC6F800EDD6F3F0EDE6F3DEC34
:102C600003F0030E0001DF6F980EE82EFED7DF2F72
:102C7000FCD7EBD751EF00F027AE13D024C020F0E3
:102C800025C021F026C022F027C023F073EC16F0F7
:102C900020C024F021C025F022C026F023C027F058
:102CA000120024C024F025C025F026C026F027C03D
:102CB00027F0120001EE44F0140EEE6AE806FDE182
:102CC00000EEE0F01A0EEE6AE806FDE100EE2DF0EF
:102CD000140EEE6AE806FDE1000EF86E060EF76EC1
:102CE00000011CEF16F02050211022102310D8B440
:102CF00009D0000E201A000E211A000E221A800E92
:102D0000231A00D020C020F021C021F022C022F0E0
:102D100023C023F0120012000001606F000E0001BA
:102D2000616F00D060C023F028C024F029C025F0D6
:102D30002AC026F03A0EC7EC11F00001616F0001C5
:102D400061510001D8A4EED7120060C020F061C02C
:102D500021F062C022F063C023F0960E246E000EB4
:102D6000256E3FEC11F020C060F021C061F022C060
:102D700062F023C063F0120012000001626F000EC7
:102D80000001636F630E286E000E296E000E2B6E1D
:102D9000010E2A6E000162518CEC16F000016351A5
:102DA0001200120020502202F3CF24F0F4CF25F0BD
:102DB00020502302F350252621502202F3502526CD
:102DC00024C020F025C021F012001200C6500F0BC5
:102DD000080AD8B405D0C6500F0B0B0AD8A402D0ED
:102DE000C58600D0C7A0FED7C95012001200266EBB
:102DF00026C022F025C023F03A0E2BEC13F0276EEC
:102E00002750D8A4F5D73A0E17EC14F01200216E13
:102E10003F0EC716000EC66E000EC56E2150C612BC
:102E20002050C71294869488C68A12002A0EBDECE0
:102E300016F02C6E2C50FE0B256E2A0EF7EC16F0B9
:102E400012002A0EBDEC16F02C6E2C500109256ED6
:102E50002A0EF7EC16F0120000D0C5CF20F01F0E9E
:102E60002016D8B4C7B4F9D71200206E20C0B8FF1E
:062E70001200C69A1200D8
:020000040020DA
:08000000FFFFFFFFFFFFFFFF00
:020000040030CA
:0E000000FF081F1EFF8B81FF0FC00FE00F4097
:00000001FF
