:0400000051EF00F0CC
:10000800FACF60F0FBCF61F0E9CF62F076EF03F052
:10001800D8CF37F0E8CF38F0E0CF39F0FACF3AF060
:10002800FBCF3BF0E9CF3CF0EACF3DF0E1CF3EF02B
:10003800E2CF3FF0D9CF40F0DACF41F0F3CF42F032
:10004800F4CF43F0F6CF44F0F7CF45F0F8CF46F0C1
:10005800F5CF47F047C0F5FF46C0F8FF45C0F7FFAA
:1000680044C0F6FF43C0F4FF42C0F3FF41C0DAFFCB
:1000780040C0D9FF3FC0E2FF3EC0E1FF3DC0EAFFFC
:100088003CC0E9FF3BC0FBFF3AC0FAFF39C0E0FFC4
:0E00980038C0E8FF37C0D8FF1000EBEF03F0D0
:10060000000000803F1872313FF0FD753E4758638F
:100610003D58951D3C82C4AE3AA8782139EF9380AD
:1006200037A092A7354656153400000000C4FF7F5E
:100630003F80EFFFBE90E1A93EEC8276BE82AD2BFB
:100640003E0E3CC3BD87D1133D4178D3BB063C046D
:10065000427D9F6A425C900142604DBB4051EC4735
:100660003EDE8D1FBB063C0442C0598B42740444DD
:1006700042F99B4F410000803F004A6E000EAC6E75
:10068000000EAB6E4AA002D0AC8800D04AA203D0C4
:10069000AC8CAB8C00D04AA402D0AC8E00D04AA661
:1006A00002D0AB8802D0AB8A00D04AB8AC849E9806
:1006B0004AAA02D0AB8600D04AAC02D09D8A01D0B3
:1006C0009D9A9E9A4AAE02D09D8801D09D9848C0BE
:1006D000AFFF4950B06EAC8AAB8E949C948EACA8A0
:1006E0001200ACBE1200948C12001200EACF63F02C
:1006F000E1CF64F0E2CF65F0D9CF66F0DACF67F0F2
:10070000F3CF68F0F4CF69F0F6CF6AF0F7CF6BF073
:10071000F8CF6CF0F5CF6DF06DC0F5FF6CC0F8FF51
:100720006BC0F7FF6AC0F6FF69C0F4FF68C0F3FF53
:1007300067C0DAFF66C0D9FF65C0E2FF64C0E1FFB1
:1007400063C0EAFF62C0E9FF61C0FBFF60C0FAFF5F
:100750001100CAEC03F08B908B8000D08B70000EE0
:100760004D6E000E4C6E4DBE08D04D50F7E1640E3C
:100770004C5CD8B0F3D701D0F1D7340E4B6EF20EEB
:10078000E82EFED74B2EFCD74C4A4D2AECD7E6D7A5
:1007900051EF00F0030ED312D388D38AD38C9490F8
:1007A0008B904F0EAB16AC9ACF0E9D16000E496E75
:1007B000330E486E080E3DEC03F0000E0DEC04F015
:1007C00011EC04F0800E486E080EFEEC03F0270ECC
:1007D000C86E8B80120000EE6EF00C0EEE6AE8061A
:1007E000FDE100EE01F0360EEE6AE806FDE1000ED6
:1007F000F86E060EF76E0001A9EF03F0496E3F0E8A
:10080000C716000EC66E000EC56E4950C61248507F
:10081000C71294869488C68A1200486E48C0B8FFF2
:060820001200C69A12004E
:020000040020DA
:08000000FFFFFFFFFFFFFFFF00
:020000040030CA
:0E000000FF081F1EFF8B81FF0FC00FE00F4097
:00000001FF
